:100000000C9420020C9448020C9448020C94FD08B5
:100010000C94D8080C94B3080C9448020C94480231
:100020000C9448020C9448020C9448020C94480228
:100030000C9448020C9448020C9448020C94480218
:100040000C94A3150C9448020C9449130C9423139C
:100050000C9448020C9448020C9448020C944802F8
:100060000C9411060C944802430556055E05640580
:100070006C0572057A057D058805F107F707880785
:10008000A1070A08B307BB078708D107F107B30721
:10009000F7078807A1070A0829083C085008500BF1
:1000A000550B600B600B600B600B650B670B6A0BED
:1000B000084AD73B3BCE016E84BCBFFDC12F3D6CCF
:1000C00074319ABD56833DDA3D00C77F11BED9E435
:1000D000BB4C3E916BAAAABE000000803F05A84C15
:1000E000CDB2D44EB93836A9020C50B991868808E1
:1000F0003CA6AAAA2ABE000000803F07634236B78A
:100100009BD8A71A39685618AEBAAB558C1D3CB7A8
:10011000CC5763BD6DEDFD753EF6177231BF000023
:1001200000803F08000000BE922449123EABAAAAFC
:100130002ABECDCCCC4C3E00000080BEABAAAAAA01
:100140003E00000000BF000000803F0000000000F3
:10015000084178D3BB4387D1133D190E3CC3BD4240
:1001600082AD2B3E68EC8276BED98FE1A93E4C80F1
:10017000EFFFBE01C4FF7F3F000000000000004011
:100180007A10F35A00A0724E18090010A5D4E800A6
:1001900000E87648170000E40B54020000CA9A3BBE
:1001A000000000E1F5050000809698000000404244
:1001B0000F000000A08601000000102700000000D2
:1001C000E803000000006400000000000A000000D6
:1001D00000000100000000002C76D888DC674F0882
:1001E00023DFC1DFAE59E1B1B796E5E3E453C63A88
:1001F000E651997696E8E6C28426EB898C9B62EDFF
:10020000407C6FFCEFBC9C9F40F2BAA56FA5F490B8
:10021000055A2AF75C936B6CF9676DC11BFCE0E42F
:100220000D47FEF520E6B500D0ED902E0300943585
:1002300077050080841E080000204E0A000000C8D8
:100240000C333333330F986E12831141EF8D211429
:10025000893BE65516CFFEE6DB18D1844B381BF7F9
:100260007C1D901DA4BBE424203284725E22810098
:10027000C9F124ECA1E53D275A44410056544700FA
:10028000524D4300475356004753540047534100D3
:10029000474C4C0047474100504D544B3232302CB4
:1002A0003130303000504D544B3331342C302C3100
:1002B0002C302C302C302C302C302C302C302C305E
:1002C0002C302C302C302C302C302C302C302C304E
:1002D0002C3000940290028C028802840280027CFE
:1002E0000278020100020004000800100020004013
:1002F000008000000100020004000800100020003F
:10030000400080000000000000000000000000002D
:10031000000000C912C015F912E3003005C8120030
:100320003A0017000006002002CE12ED12240C5DE8
:1003300023000400240009C03FC0120008C00000D0
:1003400000000C3F0C0600DB008F00E6006920FD7A
:10035000000700FF00EF000012000A0024C80000A0
:10036000098310BB02F7008F1239000F12F90071D8
:1003700000BD00F60000121E00702438003605365D
:10038000213F00F3003F20F320ED0001123E00303A
:100390000C3628002D0015090C390000210F000330
:1003A0000C0800000158107820D8008E08580871F9
:1003B000008E04701000100E0000363000D4105073
:1003C00010DC00700186045000882078001C0004B6
:1003D000201428C0280C204808490900128924202C
:1003E00005FF3F00000000240027002A0000000055
:1003F00008000201000003040700000000000000E4
:100400000000000000250028002B00000000002351
:100410000026002900040404040404040402020267
:100420000202020303030303030102040810204035
:100430008001020408102001020408102000B222EA
:1004400011241FBECFEFD8E0DEBFCDBF23E0A8EB65
:10045000B1E001C01D92A338B207E1F711E0A0E0BE
:10046000B1E0E8EAFFE502C005900D92A83BB107B4
:10047000D9F712E0C0E2D2E004C02197FE010E9449
:100480004127CF31D107C9F70E94ED150C94D22F27
:100490000C94000085ED8093BC008091BC0084FD2D
:1004A000FCCF10926402089540911402262F30E090
:1004B000240F311D21323105DCF4209164022430F7
:1004C000C9F4FC0180E090E0861758F430911402E2
:1004D0002191DC01AC50BE4FA30FB11D2C930196AE
:1004E000F3CF80911402680F6093140280E00895A6
:1004F00081E0089582E00895089508950895E091B7
:10050000CF018091CE01E81730F4F0E0EC52FE4FBD
:10051000808190E008958FEF9FEF08959091CF0133
:100520008091CE01981750F4E92FF0E0EC52FE4F85
:10053000208130E09F5F9093CF0102C02FEF3FEF0B
:10054000C90108958091CE0190E02091CF01821BD6
:1005500091090895CF92DF92EF92FF920F931F932C
:10056000CF93DF937C01CB018A0120916502222386
:1005700089F0EB016B01C40ED51ECC15DD0569F0C9
:100580006991D701ED91FC910190F081E02DC701B7
:100590000995F3CF642F0E945402C801DF91CF91D7
:1005A0001F910F91FF90EF90DF90CF900895CF9320
:1005B000DF931F92CDB7DEB76983209165022223B6
:1005C000D1F020918802203240F021E030E0FC019F
:1005D0003383228380E090E015C080916602E82F8B
:1005E000F0E0E959FD4F998190838F5F8093660217
:1005F0008093880205C061E0CE0101960E945402FA
:1006000081E090E00F90DF91CF910895FC0161337C
:1006100011F0613411F483E01FC0603321F06E34B7
:1006200011F0663511F412A618C0623311F064346B
:1006300011F484E011C0633311F487E00DC064331A
:1006400011F486E009C0653311F485E005C0663316
:1006500011F0653429F481E082A783A5816083A726
:1006600080E008958F929F92AF92BF92CF92DF92D7
:10067000EF92FF924B015C016B017C0182E0F694EA
:10068000E794D794C7948A95D1F7D501C40124E0A3
:10069000B695A795979587952A95D1F7C80ED91E37
:1006A000EA1EFB1ED701C60134E0B695A7959795C3
:1006B00087953A95D1F7C80ED91EEA1EFB1EBB27B7
:1006C000AF2D9E2D8D2DC80ED91EEA1EFB1EC70113
:1006D000AA27BB27C80ED91EEA1EFB1EA3E0B0E066
:1006E000A70196010E94A926A5019401261B370B9C
:1006F000480B590BABE0B0E00E94A926DC01CB010E
:1007000065E0B695A795979587956A95D1F7BC0151
:10071000CD016C0D7D1D8E1D9F1DFF90EF90DF9014
:10072000CF90BF90AF909F908F900895CF92DF921F
:10073000EF92FF920F931F93CF93DF93FC01EB0196
:10074000142F86A5811108C0188219821A821B8273
:1007500017A680A9826080AB1E3281F01C3209F09E
:100760007EC087A5882351F087A5843091F5288124
:1007700039814A815B81A4E6B0E045C081E087A76A
:100780004981842F82958F704F702AE0829F400D9F
:1007900011248A8181114C598881982F92959F70DC
:1007A0008F702AE0929F800D11249CE3499FA00145
:1007B0001124480F511D052E000C660B770B488342
:1007C00059836A837B831E3209F4ACC01C3261F208
:1007D00046C0853039F4288139814A815B81AAE09D
:1007E000B0E011C08630F1F008F09EC02881398158
:1007F0004A815B81833019F4A8EEB3E004C08230F3
:1008000029F4A0E1B7E20E94A92608C0813051F482
:1008100060EA76E881E090E00E9477266883798339
:100820008A839B83C880D980EA80FB80D701C60178
:10083000880F991FAA1FBB1FBC01CD016F5F7F4F9F
:100840008F4F9F4F0E943203DC01CB018C0D9D1D09
:10085000AE1DBF1D88839983AA83BB8365C087A50E
:1008600081111BC088819981AA81BB816C017D01A6
:1008700034E0CC0CDD1CEE1CFF1C3A95D1F7612F47
:10088000110F770BCB01C097092E000CAA0BBB0BE5
:100890008C299D29AE29BF2941C08F5F87A787304A
:1008A000C0F4288139814A815B81AAE0B0E00E94CE
:1008B000A926212F110F330B205331098901330F42
:1008C000220B330BDC01CB01800F911FA21FB31F42
:1008D00025C0873039F5C880D980EA80FB80D701F0
:1008E000C601880F991FAA1FBB1FBC01CD016F5FF6
:1008F0007F4F8F4F9F4F0E943203DC01CB018C0D45
:100900009D1DAE1DBF1D193324F00296A11DB11D02
:1009100005C014331CF00196A11DB11D8883998375
:10092000AA83BB8380E001C081E0DF91CF911F915A
:100930000F91FF90EF90DF90CF900895FC01DB01C5
:1009400086A5811117C011961C921E9213961C92B7
:100950001E92129780A9826080AB17A691E04D325B
:1009600009F090E080A990FB80F980AB4D3209F04E
:1009700073C06EC04C32B9F587A5811102C081E009
:1009800087A712968D919C911397892BA9F03AE035
:1009900087A591E0980F97A7281770F012964D91B0
:1009A0005C911397349FC001359F900D11241396CD
:1009B0009C938E931297ECCF80A980FF4BC0129628
:1009C0008D919C91139791958195910913969C9384
:1009D0008E9312978D919C91119791958195910984
:1009E0008D939C9337C04E3219F481E087A730C0B5
:1009F00087A5811113C02D913C9111975AE0529F08
:100A0000C001539F900D1124042E000C550B405330
:100A10005109480F591F4D935C931AC091E0980FEC
:100A200097A72817A8F012962D913C9113975AE09A
:100A3000529FC001539F900D1124042E000C550BA2
:100A400040535109480F591F13965C934E931297C8
:100A500080E0089581E008954C3209F490CF4E3241
:100A600051F6C3CF0F931F93DC019E96EC919E9796
:100A70000E2F10E00930110508F05AC0F801EC5CA7
:100A8000FF4F0C94412799961C9299976C3209F468
:100A90004FC0D0968C91D0978260D0968C93D0978F
:100AA000660F6056862F880F880F04C094968C912D
:100AB00094978053680F94966C933AC0660F605673
:100AC000862F880F880F04C093968C91939780533C
:100AD000680F93966C932CC0660F6056862F880F14
:100AE000880F04C092968C9192978053680F9296CB
:100AF0006C931EC06C32E1F415C06C3299F0660F35
:100B00006056862F880F880F680F99966C9310C0D7
:100B10006C3241F099968C9199978053680F999611
:100B20006C9399979B968C919B9784609B968C93E2
:100B300081E01F910F910895CF92DF92EF92FF9283
:100B40000F931F93CF93DF938C01D62E8091CC010E
:100B50009091CD01892B09F456C0D8011C969C9127
:100B6000983050F081E09E3008F480E0D1E001C080
:100B7000DD0F8A95EAF701C0D4E0CFB6F894F6B459
:100B800090E0E12CE394E091CC01F091CD018091D3
:100B9000CB01BAE0EB1659F1992319F09081892B1A
:100BA00003C09081809589238083C091CA01C6309B
:100BB00011F4E0FCC7E086B58F198C1798F48BB35D
:100BC0008D2361F08BB38D2B8BBBD8011E96ED91DD
:100BD000FC911F9780810E94600EEDCFC8010E949A
:100BE000460CE9CFFC0E9D2D9170D694CBCF908111
:100BF000892B8083CFBE86B58F198C1738F4C80136
:100C00000E94460CF8CF80E090E002C081E090E0C6
:100C1000DF91CF911F910F91FF90EF90DF90CF90D8
:100C200008951F920F920FB60F9211242F933F93A6
:100C30004F935F936F937F938F939F93AF93BF93E4
:100C4000EF93FF938091B900887F803609F49CC0B0
:100C500068F5883209F45BC090F4803109F454C01F
:100C600038F4882309F4F6C0883009F44DC0F6C082
:100C7000883109F44CC0803209F45DC0EFC0803483
:100C800009F468C048F4803309F455C0883309F08A
:100C9000E5C080936202D8C0803509F44FC0883522
:100CA00009F45DC0883409F0D9C0D6C0883909F488
:100CB000C7C0A8F4883709F467C038F4883609F447
:100CC00063C0803709F460C0C9C0883809F4B8C06F
:100CD000803909F45FC0803809F0C0C05BC0803B38
:100CE00009F486C038F4803A09F466C0883A09F4F9
:100CF0007FC0B4C0803C09F4A7C0883C09F4A4C0FC
:100D0000883B09F48AC0AAC080913F0210C090912C
:100D1000610280916002981770F5E091610281E0B4
:100D20008E0F80936102F0E0E05CFD4F8081809344
:100D3000BB0085EC86C0809362028EC0E0916102A8
:100D400081E08E0F809361028091BB00F0E0E05C57
:100D5000FD4F808390916102809160026EC0E091AE
:100D6000610281E08E0F809361028091BB00F0E010
:100D7000E05CFD4F80838091630281116DC081E052
:100D800080933E0284EA61C083E080936402109203
:100D90003602CFCF80913602803208F051C0E09108
:100DA000360281E08E0F809336028091BB00F0E026
:100DB000EA5EFD4F8083BDCF85EC8093BC0010922E
:100DC000640280913602803230F4E0913602F0E025
:100DD000EA5EFD4F10826091360270E0E091D20130
:100DE000F091D30186E192E009951092360236C067
:100DF00084E0809364021092150210921402E09134
:100E0000D001F091D101099580911402811105C0A2
:100E100081E0809314021092F401E091150281E0C8
:100E20008E0F80931502F0E0EC50FE4F808180938E
:100E3000BB009091150280911402981708F479CFA5
:100E400085E88093BC000AC085EC8093BC001092BA
:100E5000640204C0109262020E944A02FF91EF9164
:100E6000BF91AF919F918F917F916F915F914F91C2
:100E70003F912F910F900FBE0F901F901895EF92FA
:100E8000FF920F931F93CF93DF93EC01888991E03A
:100E900090936502809387021092660210928802F6
:100EA00060E089E892E00E94D7028E01005F1F4F48
:100EB0007E01688189E892E00E94D7022296F701BC
:100EC000618189E892E00E94D702C017D10781F7BB
:100ED000DF91CF911F910F91FF90EF900C94DE095D
:100EE000CF93DF93EC01462F8881813021F086304B
:100EF00009F46AC00CC1EDA58E2F90E0FC0131977A
:100F0000E930F10508F003C1E35CFF4F0C94412781
:100F100088A982FFFCC08EA58111F9C0433509F074
:100F2000F6C08D859E85AF85B889B095A0959095C2
:100F300081959F4FAF4FBF4F8D879E87AF87B88BEF
:100F4000E6C04C3231F48EA5811103C088A98B7F95
:100F500088AB88A982FFDBC0BE016F5E7F4FCE01E8
:100F60000E949603D4C08EA58111D1C0642FCE01FA
:100F70000E940603CCC088A98E7F88AB8EA5811104
:100F800005C06C3209F4C3C0405309C06C3209F487
:100F9000BBC089A140539AE0899F400D112449A309
:100FA000B3C022E0BE016B5E7F4FCE010E949E0463
:100FB000882309F4ACC021E09EA5911101C020E076
:100FC0009BA520FB94F96AC0EDA58E2F90E0FC0153
:100FD0003197E930F10508F09AC0EA5BFF4F0C94B5
:100FE0004127642FCE01DF91CF910C9432058EA55D
:100FF000882339F088A982FF8AC0BE01635F7F4FD2
:10100000AECF91E04C3209F490E088A990FB82F9D0
:1010100088ABF0CF98A992FB882780F992FF77C020
:101020009EA5911174C09BA598609BA7473509F0B8
:101030006EC049895A896B897C89709560955095F5
:1010400041955F4F6F4F7F4F498B5A8B6B8B7C8BDA
:101050005FC023E0BE01675E7F4FCE010E949E0409
:10106000882309F454C021E09EA5911101C020E01D
:101070009BA520FB95F912C022E0BE01635E7F4F65
:10108000CE010E949E04882309F441C021E09EA560
:10109000911101C020E09BA520FB96F99BA738C0C9
:1010A0008EA58230F1F038F4882389F0813079F50B
:1010B0006EA1605313C08430F9F0C8F0853039F563
:1010C00068A56053460F48A78BA582601FC06C328D
:1010D000F1F0440F4056642F660F660F460F4EA383
:1010E00016C0440F4056642F660F660F02C06FA1F2
:1010F0006053460F4FA30BC0440F4056642F660F3A
:10110000660F460F48A703C08BA580688BA781E0B8
:10111000DF91CF910895FC0110820895FC011482A3
:101120001582168217821082118212821382118612
:101130001086138612861586148617861686118ADF
:10114000108A138A128A148A168A178A158A81E0ED
:10115000818F828F138E87E0808F148E158ECF0142
:101160004E960C948B081F920F920FB60F9211247B
:101170002F933F934F935F936F937F938F939F939F
:10118000AF93BF93EF93FF9389B10E94600EFF91DD
:10119000EF91BF91AF919F918F917F916F915F91EF
:1011A0004F913F912F910F900FBE0F901F90189568
:1011B0001F920F920FB60F9211242F933F934F93CC
:1011C0005F936F937F938F939F93AF93BF93EF93AF
:1011D000FF9386B10E94600EFF91EF91BF91AF9196
:1011E0009F918F917F916F915F914F913F912F913F
:1011F0000F900FBE0F901F9018951F920F920FB671
:101200000F9211242F933F934F935F936F937F938C
:101210008F939F93AF93BF93EF93FF9383B10E94FC
:10122000600EFF91EF91BF91AF919F918F917F9150
:101230006F915F914F913F912F910F900FBE0F9043
:101240001F901895DC01ED91FC910190F081E02D4B
:101250000994DF92EF92FF920F931F93CF93DF9346
:10126000EC01D62EE72EF42E0E949F1160E4CE01F1
:101270000E943311CE010E948511CE010E949F1160
:1012800060ECCE010E9433110D2D1E2DC8018F0D73
:10129000911D7C010E151F0539F0F80161918F0138
:1012A000CE010E943311F6CFCE010E948511CE01EE
:1012B0000E949F116A816F706058CE010E943311A5
:1012C000CE01DF91CF911F910F91FF90EF90DF90B2
:1012D0000C9485118F929F92AF92BF92CF92DF9222
:1012E000EF92FF920F931F93CF93DF9300D000D024
:1012F000CDB7DEB75C016A0167FF03C0619531E0DD
:1013000001C030E0C114D10461F0CE0101967C012E
:101310004E0192E0891A9108062F660F110B40E4E6
:101320001FC02111F2CF19821A828FE38B832EC046
:10133000C114D104E9F08F70E82FF0E0E25CFE4FB9
:101340008081F70182839923C1F0C601B8010E9410
:10135000FA266B01F1E0EF1AF108E814F904B1F094
:10136000C601B8010E94FA26982F8111E4CFE0CF80
:101370002111E1CFF701128203C0C114D10429F772
:10138000332319F3F701428330E0DFCF43E0BE019E
:101390006F5F7F4FC5010E9429090F900F900F903A
:1013A0000F90DF91CF911F910F91FF90EF90DF9001
:1013B000CF90BF90AF909F908F900895309188020A
:1013C000313208F04BC0809164028111FCCF9091C2
:1013D000870222E02093640221E0209363022FEF32
:1013E000209362021092610230936002E7E6F2E01D
:1013F000A0E4B2E020E0321721F041914D932F5F3D
:10140000FACF10923F0220913F02990F922B9093B6
:101410003F0290913E02913061F410923E02909111
:101420003F029093BB009091BC0093FDF8CF95ECE8
:1014300001C095EE9093BC00909164029230E1F36C
:10144000909162029F3F79F080916202803241F078
:1014500080916202803331F084E005C081E003C0F6
:1014600082E001C083E0109266021092880210921E
:1014700065020895DF92EF92FF920F931F93CF932F
:10148000DF936115710509F458C0EB018C017B01F4
:101490008FEFE81AF80AFB01D49064E2C8010E94B9
:1014A0002209F4E2DF1204C02296F701D4907E01F3
:1014B000C0E0D0E0DD2091F0FAE2DF1611F0DD238C
:1014C00011F0DF5F01C0CD256D2DC8010E942209FA
:1014D000F701D490FFEFEF1AFF0AECCFD1112DC026
:1014E0006AE2C8010E9422096C2F70E084E07595C1
:1014F00067958A95E1F76F706A3010F0695C01C0FA
:10150000605DC8010E942209CF70CA3010F067E305
:1015100001C060E36C0FC8010E9422096DE0C801A0
:101520000E9422096AE0C801DF91CF911F910F91BB
:10153000FF90EF90DF900C942209DF91CF911F91E3
:101540000F91FF90EF90DF900895CF92DF92EF928E
:10155000FF920F931F93CF93DF93EC0188858B7FCE
:101560008887E881F9810190F081E02DCE0109950D
:10157000182F888586958170181759F00E94971545
:101580006A837B838C839D83988582E08927888703
:101590003AC00E949715CA80DB80EC80FD80AB01C9
:1015A000BC014C195D096E097F098E819F81A0E005
:1015B000B0E0481759076A077B0728F188858170D2
:1015C000181709F10E9497156A837B838C839D838A
:1015D000988581E08927846088870E9497150A850D
:1015E0001B852C853D85DC01CB01801B910BA20B5B
:1015F000B30B8E879F87A88BB98B0E9497156A873C
:101600007B878C879D87888582FB882780F9DF917F
:10161000CF911F910F91FF90EF90DF90CF900895A1
:10162000CF92DF92EF92FF920F931F93CF93DF93AE
:101630006C01EB01E12CF12C00E010E0D601929658
:101640008D919C919397DC01ED91FC910084F18543
:10165000E02D0995892B81F461E070E080E090E055
:101660000E94C611BFEFEB1AFB0AE8EEEE16E3E0AC
:10167000FE0620F38FEF47C0D60192968D919C9184
:101680009397DC01ED91FC910284F385E02D09959F
:101690000930110538F5F801E15BFF4F0C94412743
:1016A0008F3E61F61882898328C028813981F9012B
:1016B000E82BCF019983888381309F4EF1F020C0C1
:1016C000FE01E00FF11F808318C08E8316C01F82B9
:1016D000888713C02F813885A901482BCA019887B4
:1016E0008F830BC0FE01E00FF11F80832F813885AF
:1016F000C80108978217930729F00F5F1F4F9ECFED
:101700008EEF01C080E0DF91CF911F910F91FF908C
:10171000EF90DF90CF900895BF92CF92DF92EF923B
:10172000FF920F931F93CF93DF93EC018B018AA15C
:101730009BA1DB0111966C91DC01ED91FC91019074
:10174000F081E02D09958AA19BA1DC01ED91FC912E
:101750000190F081E02DD8016C9109958AA19BA19F
:10176000DC01ED91FC910190F081E02DD801129601
:101770006C9109958AA19BA1DC01ED91FC910190EE
:10178000F081E02DD80113966C9109958AA19BA157
:10179000DC01ED91FC910190F081E02DD8011496CF
:1017A0006C9109958AA19BA1DC01ED91FC910190BE
:1017B000F081E02DD80115966C9109958AA19BA125
:1017C000DC01ED91FC910190F081E02DD80116969D
:1017D0006C910995F801C780D084F2E0CF0ED11C3E
:1017E0008AA19BA1ED2CFF24DC01ED91FC910190DD
:1017F000F081E02D6E2D09958AA19BA1DC01ED9170
:10180000FC910190F081E02D6C2D0995EC0CF11C00
:10181000F8018681E80EF11CB12CCB2CD12CD8011B
:1018200017962D913C9118978AA19BA1C216D306B9
:1018300090F4C00ED11EDC01ED91FC910190F0817D
:10184000E02DD60119966C910995F6018185E80E77
:10185000F11CB394E2CFDC01ED91FC910190F08199
:10186000E02D6F2D09958AA19BA1DC01ED91FC91E2
:101870000190F081E02D6E2DDF91CF911F910F919E
:10188000FF90EF90DF90CF90BF900994CF93DF93BC
:10189000FC0130913D023F3FA9F1A685B7859C919F
:1018A00080913C02892371F126B580913802909194
:1018B0003702290F90913B02291B99E0931B492F76
:1018C00050E0289F90011124232F33272695269539
:1018D00042175307B8F480913A022091390291508F
:1018E00018F0822B220FFBCFEF0180933A02209356
:1018F000390290933D020E94410E81E02A893B8982
:10190000232B09F080E0DF91CF9108954F925F92F1
:101910006F927F928F929F92AF92BF92CF92DF92FF
:10192000EF92FF920F931F93CF93DF9300D000D0DD
:1019300000D0CDB7DEB78C017B018DB69EB61A8282
:1019400019821C821B821E821D82CE0101960E947A
:10195000F21262EB71E0CE0101960E94A112BC016D
:10196000C7010E94F212CE0101960E940913D7010D
:101970001496CD90DC901597C6010197EDB7FEB790
:10198000EC19FD090FB6F894FEBF0FBEEDBF2DB7E1
:101990003EB72F5F3F4F5901C114D10479F08C1528
:1019A0009D0508F46C01D7016D917C91A601C501DC
:1019B0000E94102DF501EC0DFD1D108240E2742EE9
:1019C00050E2652EE0E2512C98012D5F3F4F6901F6
:1019D000852D90E0D70114962D913C9115972150BB
:1019E00031098217930708F040C0D501A80FB91F2D
:1019F0004C90F0E0EE0FFF1FED51FD4F859194915B
:101A0000F80194838383E62DF0E0EE0FFF1FED5184
:101A1000FD4F85919491D80116969C938E931597BE
:101A2000E72DF0E0EE0FFF1FED51FD4F85919491F2
:101A3000F80190878783E42DF0E0EE0FFF1FED5152
:101A4000FD4F859194911A969C938E931997C60198
:101A50000E943F0760E971E080E090E00E94C611BB
:101A60005394E62D672C742CB3CFF6010D5E1F4FF7
:101A7000119211920E171F07D9F7C6010E943F0756
:101A800060E971E080E090E00E94C6110FB6F89422
:101A90009EBE0FBE8DBE26960FB6F894DEBF0FBE5B
:101AA000CDBFDF91CF911F910F91FF90EF90DF900D
:101AB000CF90BF90AF909F908F907F906F905F90EE
:101AC0004F9008950F931F93CF93DF9300D000D0D2
:101AD00000D0CDB7DEB78C01FC0182818823A9F04C
:101AE0001A8219821C821B821E821D82CE010196DF
:101AF0000E94F212BE016F5F7F4FC8010E94860CE8
:101B0000CE0101960E94091306C060ED77E080E0E7
:101B100090E00E94C61126960FB6F894DEBF0FBE65
:101B2000CDBFDF91CF911F910F9108952091740344
:101B300080917503821769F030E0F901EC5CFC4F8D
:101B400080812F5F3F4F2F7333272093740390E0E2
:101B500008958FEF9FEF0895FC0183819481823077
:101B6000910538F0880F991F880F991F05970197E5
:101B7000F1F70895FC01538D448D252F30E0842F1B
:101B800090E0821B930B541710F0CF9608950197A5
:101B90000895FC01918D828D981761F0828DDF018F
:101BA000A80FB11D5D968C91928D9F5F9F73928F50
:101BB00090E008958FEF9FEF0895FC01918D828D45
:101BC000981731F0828DE80FF11D858D90E0089512
:101BD0008FEF9FEF0895FC01918D228D892F90E06A
:101BE000805C9F4F821B91098F739927089580E035
:101BF00090E0892B29F00E94571281110C9400006B
:101C00000895833081F028F4813099F08230A1F07A
:101C100008958730A9F08830B9F08430D1F48091EC
:101C200080008F7D03C0809180008F77809380003B
:101C3000089584B58F7702C084B58F7D84BD0895E3
:101C40008091B0008F7703C08091B0008F7D80932A
:101C5000B00008959C018091750390E04091740359
:101C6000841B9109805C9F4F60E470E00E940E2706
:101C7000811105C0C901F8940E94460C789490E047
:101C80000895E0913203F09133033097C1F0028858
:101C9000F389E02D309709F009942091750330E025
:101CA000A9014F5F5F4F4F735527909174039417AD
:101CB00031F0F901EC5CFC4F80834093750308958B
:101CC000EF92FF920F931F93CF93DF93F6B4E090C0
:101CD0003C02E82250913D025F3F51F4E11056C0B2
:101CE00010923D0281E08093390210923A0248C07E
:101CF00080913802C0913702CF0D90913B02C91BF1
:101D0000C89FE0011124CD2FDD27C695C69549E077
:101D1000451B042F10E00C171D0708F04C2F540F23
:101D200050933D0280913A0290913902292FE1109F
:101D30000FC04150922F990F4F3F19F0822B292F3E
:101D4000F8CF80933A02909339025830C8F01BC004
:101D5000415001C0220F4A95EAF720933902822BA5
:101D600080933A02583060F00E94410E81E0E816FC
:101D700021F00C171D0708F4B3CF8FEF80933D02BD
:101D8000F0923B0203C00E94410EF3CFDF91CF914E
:101D90001F910F91FF90EF900895FC01848DDF015A
:101DA000A80FB11DA35ABF4F2C91848D90E00196CE
:101DB0008F739927848FA689B7892C93A089B189BD
:101DC0008C91837080648C93938D848D981306C05E
:101DD0000288F389E02D80818F7D80830895EF92C2
:101DE000FF920F931F93CF93DF93EC0181E0888FD5
:101DF0009B8D8C8D981305C0E889F989808185FDBC
:101E000026C0F62E0B8D10E00F5F1F4F0F731127AA
:101E1000E02E8C8DE8120CC00FB607FCFACFE889D3
:101E2000F989808185FFF5CFCE010E94CD0EF1CFDB
:101E30008B8DFE01E80FF11DE35AFF4FF0829FB733
:101E4000F8940B8FEA89FB89808180620AC09FB772
:101E5000F894EE89FF896083E889F989808183702D
:101E6000806480839FBF81E090E0DF91CF911F91DC
:101E70000F91FF90EF900895CF93DF93EC01888D41
:101E80008823C9F0EA89FB89808185FD05C0A8897E
:101E9000B9898C9186FD0FC00FB607FCF5CF808104
:101EA00085FFF2CFA889B9898C9185FFEDCFCE014E
:101EB0000E94CD0EE7CFDF91CF910895CF93DF93AE
:101EC000282F30E0F901E351FC4F8491F901E75DDF
:101ED000FB4FD491F901EB5EFB4FC491CC2391F001
:101EE00081110E94010EEC2FF0E0EE0FFF1FE55F65
:101EF000FB4FA591B491EC91ED2381E090E021F4AA
:101F000080E002C080E090E0DF91CF910895FC0175
:101F100081850E945E0F21E0892B09F420E0822F49
:101F200008951F93CF93DF93282F30E0F901E351F9
:101F3000FC4F8491F901E75DFB4FD491F901EB5E11
:101F4000FB4FC491CC23C1F0162F81110E94010ECA
:101F5000EC2FF0E0EE0FFF1FEF5FFB4FA591B49168
:101F60009FB7F894111104C08C91D095D82302C06A
:101F7000EC91DE2BDC939FBFDF91CF911F910895F1
:101F8000CF93DF9390E0FC01E75DFB4F2491FC01D0
:101F9000EB5EFB4F8491882361F190E0880F991FDD
:101FA000FC01ED51FC4FC591D491FC01EF5FFB4F5B
:101FB000A591B491611109C09FB7F89488812095CB
:101FC00082238883EC912E230BC0623061F49FB78B
:101FD000F8948881322F309583238883EC912E2BBF
:101FE0002C939FBF06C08FB7F894E8812E2B2883CF
:101FF0008FBFDF91CF9108950F931F93CF93DF93FE
:10200000EC0100913203109133030115110509F41D
:102010005AC0D8011C968C91883038F08E3040F030
:10202000863148F0E0E0F0E008C0EDE6F0E005C001
:10203000EBE6F0E002C0ECE6F0E04FB7F894109267
:102040003303109232033097E9F1D8011C969C912A
:10205000963118F020E030E002C028E630E0D901E7
:102060006C91983060F051E09E3008F450E081E0CF
:1020700090E001C0880F5A95EAF7809501C08BEF78
:102080008623D9018C936081D8011C965C915830CD
:1020900038F481E090E001C0880F5A95EAF70FC04C
:1020A000252F30E05E3018F42850310902C02E5040
:1020B000310981E090E001C0880F2A95EAF7809508
:1020C000862380834FBF60E08C850E94C00F8C8583
:1020D00090E0FC01E75DFB4FE491E0933C02FC01E2
:1020E000EB5EFB4FE491F0E0EE0FFF1FE55FFB4F6F
:1020F000859194919F878E878D8590E0FC01E75DA7
:10210000FB4F24912093CB01FC01EB5EFB4FE4914C
:10211000F0E0EE0FFF1FEF5FFB4FA591B491B0937E
:10212000CD01A093CC01109719F0EC91E22BEC9328
:1021300061E08D850E94C00F8C85883040F08E3024
:1021400048F0863108F08AC00CE610E005C00DE6C4
:1021500010E002C00BE610E08FEF80933D0210927A
:10216000740310927503E881F9810680F781E02DF0
:10217000CE010995888999898115BBE49B0709F0EF
:1021800045C08DE08093CA018EE48093380286E0DA
:10219000809337025FB7F894F80140819C859830AE
:1021A00030F481E001C0880F9A95EAF70EC0292F1C
:1021B00030E09E3018F42850310902C02E50310909
:1021C00081E001C0880F2A95EAF7842BD8018C930F
:1021D0008C85863118F0E0E0F0E002C0E8E6F0E03F
:1021E0009081883050F021E08E3008F420E081E0CA
:1021F00001C0880F2A95EAF701C084E0892B80830B
:10220000D0933303C09332035FBF28C08130EBE427
:102210009E0760F48038954209F0BCCF8AE1809334
:10222000CA0187E2809338028AE0B2CF82312AE77E
:10223000920741F488E08093CA0180E880933802D5
:1022400085E0A6CF8115964909F0A4CF86E080935A
:10225000CA018DE98093380284E09ACFDF91CF9153
:102260001F910F9108950F931F93CF93DF93EC016C
:10227000062F18E061E088810E94C00FCE010E9405
:10228000AC0D00FF02C060E001C061E089810E94E6
:10229000C00FCE010E94AC0D60E088810E94C00F8B
:1022A000CE010E94AC0D0695115021F761E08881A6
:1022B0000E94C00F60E089810E94C00FCE010E9481
:1022C000AC0D60E088810E94C00FCE010E94AC0D71
:1022D00089810E945E0F182F811104C061E08981FD
:1022E0000E94C00FCE010E94AC0D61E088810E9467
:1022F000C00FCE010E94AC0D81E0111101C080E041
:10230000DF91CF911F910F910895CF93DF93EC014F
:1023100061E089810E94C00FCE010E94AC0D60E097
:1023200088810E94C00FCE010E94AC0D60E08981BF
:102330000E94C00FCE01DF91CF910C94AC0DCF93D2
:10234000DF93EC0161E089810E94C00FCE01DF9133
:10235000CF910C94AC0D862F642F0C94C00F8E304F
:1023600008F08E508770806480937C0080917A00A2
:10237000806480937A0080917A0086FDFCCF809102
:1023800078002091790090E0922B08958F929F928F
:10239000AF92BF92CF92DF92EF92FF926B017C01DE
:1023A0000E9472154B015C01C114D104E104F104D7
:1023B000F1F00E947215DC01CB0188199909AA0974
:1023C000BB09883E9340A105B10570F321E0C21A14
:1023D000D108E108F10888EE880E83E0981EA11C60
:1023E000B11CC114D104E104F10419F7DDCFFF9051
:1023F000EF90DF90CF90BF90AF909F908F90089517
:102400000895CF92DF92EF92FF920F931F93CF9395
:10241000DF936C017A018B01C0E0D0E0CE15DF05BF
:1024200081F0D8016D918D01D601ED91FC91019063
:10243000F081E02DC6010995892B11F02196EECF90
:102440007E01C701DF91CF911F910F91FF90EF9017
:10245000DF90CF90089580E090E008950E94F02CE6
:102460000F931F93CF93DF93EC018881998100979D
:1024700029F02A813B812617370788F48B016F5F8B
:102480007F4F0E942A2C009761F0998388831B83D9
:102490000A832C813D81232B11F4FC01108281E001
:1024A00001C080E0DF91CF911F910F91089585E9E0
:1024B00092E00E94EB0D21E0892B09F420E0822FAD
:1024C0000895EF92FF920F931F93CF93DF936115BF
:1024D000710511F480E01CC041155105C1F07B016C
:1024E000EC018C819D818A01080F191FB801CE0172
:1024F0000E943012882371F3288139818C819D815B
:10250000B701820F931F0E94092D1D830C8381E068
:10251000DF91CF911F910F91FF90EF900895CF938E
:10252000DF93EC0188819981009711F00E94A12B23
:10253000198218821D821C821B821A82DF91CF9120
:102540000895CF93DF93EC016115710561F0FB01F4
:1025500001900020E9F73197AF01461B570B0E940D
:102560006112811103C0CE010E948F12CE01DF9152
:10257000CF910895EF92FF920F931F93CF93DF9324
:10258000EC017B018A01BA010E943012811104C062
:10259000CE010E948F1207C01D830C83B701888172
:1025A00099810E94092DCE01DF91CF911F910F914A
:1025B000FF90EF900895CF93DF93EC0161157105C3
:1025C00059F0FB0101900020E9F73197AF01461B5C
:1025D000570B0E94BA1202C00E948F12CE01DF91E7
:1025E000CF910895CF93DF93EC01FB0186179707F6
:1025F00061F0608171816115710529F04481558117
:102600000E94BA1202C00E948F12CE01DF91CF91B8
:102610000895FC01808191810C94A12BFC01118211
:10262000108213821282158214826115710551F095
:10263000FB0101900020E9F73197AF01461B570BD2
:102640000C94BA1208951F920F920FB60F92112494
:102650002F933F934F935F936F937F938F939F93AA
:10266000AF93BF93EF93FF9385E992E00E94CD0E65
:10267000FF91EF91BF91AF919F918F917F916F915A
:102680005F914F913F912F910F900FBE0F901F9030
:1026900018951F920F920FB60F9211242F938F93BC
:1026A0009F93EF93FF93E091A502F091A6028081A2
:1026B000E091AB02F091AC0282FD12C0908180915A
:1026C000AE028F5F8F732091AF02821751F0E091BD
:1026D000AE02F0E0EB56FD4F958F8093AE0201C045
:1026E0008081FF91EF919F918F912F910F900FBE5D
:1026F0000F901F9018950E94971520E436E040E057
:1027000050E00E94872621E06032734081059105E8
:1027100008F020E0822F08958F929F92AF92BF928F
:10272000CF92DF92EF92FF92CF93DF93EA01072ED1
:10273000000C880B990B0E9444256B017C01BE01A3
:1027400061507109072E000C880B990B0E944425DB
:102750009B01AC0160E070E080E291E40E944629B8
:102760004B015C01BE01DD0F880B990B0E944425D3
:102770009B01AC0160E070E080E291E40E94462998
:102780009B01AC01C701B6010E942B280E949D2825
:1027900026EF2603E001279FD00D1124A501940107
:1027A000C701B6010E942B280E949D28CE01860FEA
:1027B000971FDF91CF91FF90EF90DF90CF90BF9068
:1027C000AF909F908F900895FF920F931F93CF9398
:1027D000DF93EC01F62E08811981C8010E94612661
:1027E000F81621F06F2DC8010E946926CE01DF91F5
:1027F000CF911F910F91FF900895CF92DF92EF92AA
:10280000FF920F931F93CF93DF93CDB7DEB7289737
:102810000FB6F894DEBF0FBECDBF83E690E00E94F6
:1028200061268F8384E690E00E94612688878F81ED
:1028300098858F3F910581F519821A821B821C822F
:10284000CE0101967C0100E010E06C01F70161917E
:102850007F011E830D83CE0105960E94E4130F5F56
:102860001F4F0430110591F78DE490E09A8389831E
:1028700061E0C6010E94E41383E690E09A838983B5
:1028800060E0C6010E94E41384E690E09A838983A5
:1028900060E0C6010E94E41328960FB6F894DEBFEC
:1028A0000FBECDBFDF91CF911F910F91FF90EF90A1
:1028B000DF90CF9008950E94FD138DE490E00E9478
:1028C00061260895EF92FF920F931F93CF93DF93AA
:1028D00000D000D0CDB7DEB70E94FD13CE01019627
:1028E0007C0100E010E0C8010E946126F70181939D
:1028F0007F010F5F1F4F04301105A9F70E945B1481
:1029000081110EC026EB33EF4DEC5FE369817A81D4
:102910008B819C810E942B2869837A838B839C8383
:1029200069817A818B819C810F900F900F900F901D
:10293000DF91CF911F910F91FF90EF900895DC01EF
:102940001596ED91FC91169760E080810C94910FA3
:10295000CF93DF93EC018B819C810E94A50A882391
:1029600029F0EB81FC818085817001C080E0DF91DE
:10297000CF910895CF93DF93EC018B819C810E94CE
:10298000A50A882331F0EB81FC81808580958170D8
:1029900001C080E0DF91CF910895DC011596ED91A3
:1029A000FC91169761E080810C94910FCF93DF9397
:1029B000EC010E94BA14882349F00E947B138823FB
:1029C00051F0CE01DF91CF910C94CD14CE010E9435
:1029D000A814882329F0CE01DF91CF910C949F1485
:1029E000DF91CF910895CF93DF93EC010E94BA1449
:1029F000882329F0CE01DF91CF910C94CD14CE0124
:102A00000E94A814882341F0ED81FE8160E080815E
:102A1000DF91CF910C94910FDF91CF910895EF92B8
:102A2000FF920F931F93CF93DF938C01F62EE42E2A
:102A300086E191E0D80111969C938E9312966C9347
:102A400081E090E00E94092BEC01E88261E08E2D8C
:102A50000E94C00FF801D683C58382E190E00E94F6
:102A6000092BFC0184E991E0918380831282138217
:102A7000148215828AE090E09783868310861186FF
:102A8000D8011496FC93EE93139762E08F2D0E9469
:102A9000C00FF801C381D481F9861886E881F981D5
:102AA0000190F081E02DCE010995882319F08885E9
:102AB000836088870E9497156A837B838C839D83BC
:102AC000D80113968D919C91149722E330E0FC017C
:102AD00037832683DF91CF911F910F91FF90EF9065
:102AE0000C94A50A3FB7F89480917B0390917C03E6
:102AF000A0917D03B0917E0326B5A89B05C02F3F12
:102B000019F00196A11DB11D3FBFBA2FA92F982F13
:102B10008827820F911DA11DB11DBC01CD0142E08E
:102B2000660F771F881F991F4A95D1F708952FB711
:102B3000F894609177037091780380917903909174
:102B40007A032FBF08951F920F920FB60F92112490
:102B50002F933F938F939F93AF93BF93809177036E
:102B600090917803A0917903B0917A033091760324
:102B700023E0230F2D3720F40196A11DB11D05C0C0
:102B800026E8230F0296A11DB11D209376038093A2
:102B9000770390937803A0937903B0937A0380919D
:102BA0007B0390917C03A0917D03B0917E030196FD
:102BB000A11DB11D80937B0390937C03A0937D03A3
:102BC000B0937E03BF91AF919F918F913F912F91D1
:102BD0000F900FBE0F901F901895CF93DF93CDB736
:102BE000DEB7CF56D1090FB6F894DEBF0FBECDBF0A
:102BF000789484B5826084BD84B5816084BD85B5D8
:102C0000826085BD85B5816085BD80916E008160E3
:102C100080936E0010928100809181008260809389
:102C2000810080918100816080938100809180008B
:102C30008160809380008091B10084608093B100B6
:102C40008091B00081608093B00080917A008460B0
:102C500080937A0080917A00826080937A008091DC
:102C60007A00816080937A0080917A0080688093F6
:102C70007A001092C10087E090E00E94092B8C013D
:102C800045E06BE00E940F1590E1E92E91E0F92EEE
:102C9000D801ED92FC921093BF010093BE0187E032
:102CA00090E00E94092B8C0144E06AE00E940F151D
:102CB000F801F182E0821093BD010093BC0187E02E
:102CC00090E00E94092B8C0146E06CE00E940F15F9
:102CD0001093BB010093BA0189E090E00E94092B98
:102CE0008C0147E069E00E940F1586E191E0D80170
:102CF0008D939C9381E090E00E94092B7C0188E0F9
:102D0000F701808361E00E94C00FD8011896FC9201
:102D1000EE9217971093B9010093B80185E690E001
:102D20000E94092B8C017C01BFE0EB0EF11CC70156
:102D30000E948E08C801C4960E948E08F801138272
:102D400014821582168217821086118612861386C7
:102D5000148615861686C7010E948E08D801D39660
:102D60001C92F801E05AFF4F81E080833196108277
:102D700011821282138222E0C22EF801C08233E057
:102D8000D32ED18284E190E00E94092B7C01DC01EA
:102D900013961C921E92129788EE93E0A0E0B0E08A
:102DA000F70184839583A683B7838CE191E09183B7
:102DB0008083C486D586138A128A6801FEE5CF0E09
:102DC000D11CD601ED92FC92F7018089918980385F
:102DD000954289F080E895E2D70151969C938E93B5
:102DE00050978091320390913303E816F90619F455
:102DF000C7010E94FC0FC7010E94FC0F65EA72E048
:102E0000F601808191810E943A0A68E972E0D60158
:102E10008D919C910E943A0A1093C5010093C401C0
:102E200087E090E00E94092B7C01FC01108281E088
:102E3000818381E090E00E94092B8C018DE0D80114
:102E40008C9361E00E94C00FF7011383028388E234
:102E500090E00E94092B8C01DC0116961D921D92B8
:102E60001D921C9219978FEF9FEFDC01F80182876A
:102E70009387A487B58715A214A285E992E097A34A
:102E800086A393A382A3D70115961C930E93149740
:102E900016961C9268EE73E080E090E00E94C611E6
:102EA000D8019696ED91FC919797309741F1A089C2
:102EB000B18982E08C93A089B1891C92A485B585E3
:102EC0001C92A685B78580E18C93108EA489B58964
:102ED00086E08C93A289B3898C9180618C93A289BE
:102EE000B3898C9188608C93A289B3898C91806816
:102EF0008C930288F389E02D80818F7D8083F80197
:102F000084A195A1009711F00E94FC0FF092C901D5
:102F1000E092C80186E190E00E94092B8C01F2E169
:102F2000BF2EDC01BC9283E1C82E1196CC92119782
:102F3000DD24D3941296DC92129781E1FE01319642
:102F4000139601900D928A95E1F785E090E00E943A
:102F5000092B7C01FC01B082C18284E690E094835D
:102F6000838360E082E10E94C00F60E0D701119688
:102F70008C910E94C00F60E0F70180810E94910F48
:102F800060E0D70111968C910E94910FF801F58AAB
:102F9000E48A80E7838B1092CF011092CE011092C9
:102FA00066021092880210926402D092630210921C
:102FB0003E0261E082E10E94910F61E083E10E94A4
:102FC000910F8091B9008E7F8093B9008091B900F4
:102FD0008D7F8093B90088E48093B80085E4809366
:102FE000BC008CE792E09093D1018093D0018DE7F3
:102FF00092E09093D3018093D201D80153968C91A3
:10300000D092650280938702109266021092880225
:1030100061E289E892E00E94D7020E94DE09F8018D
:103020008389D09265028093870210926602109283
:10303000880261E889E892E00E94D7020E94DE09D6
:10304000D80153968C91D09265028093870210929A
:103050006602109288026FEE89E892E00E94D70221
:103060000E94DE091093C7010093C60181E090E041
:103070000E94092B8C018EE0F801808362E00E949F
:10308000C00F1093C3010093C20187E090E00E943B
:10309000092B8C01DC0113961D921D921D921C922E
:1030A000169781E18C930E94AF11F801928381837E
:1030B00060E081E10E94C00F1093C1010093C00144
:1030C0008091BE019091BF010E94CD148091BC01FE
:1030D0009091BD010E94CD140E946214E090C6013F
:1030E000F090C701D70112962C91222309F4E1C078
:1030F0002C961FAE1EAE2C972E961FAE1EAE2E9790
:1031000060961FAE1EAE60978E010F5F1F4F2AE0C4
:103110004CE00E94EB22BC01CE01865B9F4F0E94D7
:10312000DB1260968EAD9FAD6097892B81F02C9657
:103130000EAD1FAD2C976EE270E0C8010E94FE2C10
:10314000009729F0FC01E01BF10B8F0102C00FEF8B
:103150001FEF66EB71E0CE0101960E940E136096A0
:103160008EAD9FAD60970097E1F08017910708F44E
:103170008C012C96EEADFFAD2C97E00FF11FD080A7
:1031800010822C966EAD7FAD2C97CE0101960E94D9
:10319000DB122C968EAD9FAD2C97FC01E00FF11F3A
:1031A000D0822C968EAD9FAD2C970097C9F0698187
:1031B0007A816115710591F02E964EAD5FAD2E9717
:1031C0002D813E814217530748F00E94092D8D81C1
:1031D0009E8160969FAF8EAF609718C00E94A12B12
:1031E00089819A812C969FAF8EAF2C978B819C8181
:1031F0002E969FAF8EAF2E978D819E8160969FAF4A
:103200008EAF60971A8219821C821B821E821D82D9
:10321000CE0101960E9409130E945B14882319F0C5
:1032200008E911E002C00BEA11E06AE971E0CE01A1
:1032300001960E940E1360964EAD5FAD60972C967E
:103240006EAD7FAD2C97CE0101960E946112811167
:1032500004C0CE0101960E948F12B801CE010196E2
:103260000E94A112BC01CE01865B9F4F0E94F21208
:10327000CE0101960E9409131A8219821C821B82B8
:103280001E821D82BE01665B7F4FCE0101960E94A9
:10329000F212BE016F5F7F4FC7010E94860CCE0104
:1032A00001960E940913CE01865B9F4F0E9409136D
:1032B00069C00E949D285B01072E000C880B990BAA
:1032C0000E9444252DEC3CEC4CEC5DE30E94462929
:1032D0000E949D282B01FFEF4F1A5F0A8201C12C2B
:1032E000D12C74E6372EEAE02E2EC414D5040CF04F
:1032F00049C0A801B501C7010E948C133C01A80177
:103300004F5F5F4FB501C7010E948C134C01A801AC
:103310004E5F5F4FB501C7010E948C139C01329E26
:10332000C001339E900D1124289C9001299C300DE2
:103330001124820F931F680E791E21E034E0C3161A
:10334000D1040CF420E0D70154968D919C915597AF
:10335000A30177FE04C0442755274619570977FE75
:1033600002C066EF01C06AE00E946A0960E971E08C
:1033700080E090E00E94C611BFEFCB1ADB0A01503B
:103380001109B3CF8091BE019091BF010E949F149B
:103390008091BC019091BD010E949F14E090C801F2
:1033A000F090C90199249A9442E0C42ED12C52E0A5
:1033B000852E66E0A62EB12CF70186818111D8C03A
:1033C0000481158121E03FEE3A83298331E03F8378
:1033D00041E050E0598748879B829C829D829E8273
:1033E0003A87BE016F5F7F4FC8010E948C0BBE0100
:1033F0006F5F7F4FC8010E94100B811106C08F8143
:10340000873019F48A85882319F08FEF9FEF8CC0DD
:10341000D70114960D911C911597E1E0FFEEFA8308
:10342000E983F1E0FF83D986C8869B829C829D82D6
:103430009E828A86FB87BE016F5F7F4FC8010E9414
:103440008C0BBE016F5F7F4FC8010E94100B811172
:10345000DCCF8F818730C9F68A858111D6CFD7011D
:1034600014960D911C91159786E0E6E0F1E0DE01DF
:10347000A65BBF4F01900D928A95E1F7E1E0FFEE68
:10348000FA83E983F1E0FF83B986A8869B829C8258
:103490009D829E8286E0FE01E65BFF4FDE011A966A
:1034A00001900D928A95E1F7BE016F5F7F4FC801D1
:1034B0000E948C0BBE016F5F7F4FC8010E94100BF2
:1034C0008111A3CF8F81873009F09FCFEFEFFFEFFE
:1034D000D8011196FC93EE931396FC93EE931297FA
:1034E0008B8590E0982F882711969C938E932C853E
:1034F000822B11969C938E938D8590E0982F882730
:1035000013969C938E9312972E85822B13969C93E1
:103510008E9312978A85811178CFD7011496ED91F9
:10352000FC9115978081918101970A9708F044CF0B
:10353000D7011296ED91FC91139761E080810E9472
:10354000910F88248394F70186826FE971E0CE01A0
:1035500001960E940E13BE016F5F7F4F8091C601DE
:103560009091C7010E94620DCE0101960E9409133D
:103570002090C4013090C50162961FAE1EAE6297C6
:103580009101235D3F4F6A963FAF2EAF6A97A1012D
:103590004D5A5F4F64965FAF4EAF6497C1018B5A2F
:1035A0009F4FA8969FAF8EAFA897F101E25AFF4FA9
:1035B00080809180710192E0E90EF11C2101A4E567
:1035C0004A0E511C82E0782E93E0A92ED401ED9191
:1035D000FC910084F185E02DC4010995892B09F443
:1035E00053C2D401ED91FC910284F385E02DC40116
:1035F0000995182FF10183859485A585B6850196D7
:10360000A11DB11D83879487A587B6871432D1F495
:1036100082A984FF02C08F7E82ABD1019E961C924C
:103620009E9712961C921297E1E0D396EC93D39753
:10363000D0961C92D097D2968C91D2978D7FD296AD
:103640008C93C4CF03A9023071F51A3219F4A3AADE
:1036500010AABCCF80EE810F8F35F0F4F10186A562
:10366000812786A7612FC7010E947007882309F46C
:10367000FCC01C3249F4F10182A98D7F82AB87A581
:103680008F5F87A710AAA2CFD101D0968C91D09737
:103690008F5FD0968C939ACF6A968EAD9FAD6A97C6
:1036A0000E948B085AC7013009F05FC086A58127A8
:1036B00086A71C32A1F48281882309F44EC76A963A
:1036C0008EAD9FAD6A970E948B08D1019F960C9397
:1036D0009F97D0961C92D097D3967C9277CFF1018A
:1036E000D0A8F1E0FD1508F033C70EEFC02ECD0CC9
:1036F000D10112960C91002311F0015001C000E09D
:10370000E02FF0E0EE0FFF1FED52FD4F85919491F9
:103710006C2D70E0FC01E60FF71FE4911E1709F411
:1037200013C71E170CF419C70F5F083009F415C72B
:10373000E02FF0E0EE0FFF1FED52FD4F4591549149
:103740009C01DA01A81BB90BE22FE81BEC1510F065
:10375000CA01E0CFF901B490FD01E20FF31FE4913B
:103760002F5F3F4FBE1681F3F3CF033009F08AC0BD
:1037700010628FE9810F863010F4175501C0105385
:10378000D101D0964C91D0979E962C919E97812FE7
:1037900090E041110EC0E1E0D096EC9330E054E0AF
:1037A000359527955A95E1F72817390709F051C043
:1037B0000DCF2F7030E051E02817390709F450E0A1
:1037C0002817390709F042C0D101D2968C91D297BF
:1037D00081FF0BC08D7FD2968C93D2974F5FD0968E
:1037E0004C936CE2C7010E947007F10183819481C0
:1037F000A581B6810196A11DB11D83839483A58304
:10380000B68391E08281863009F090E0D101D296B2
:103810008C91D29790FB84F9D2968C93D297D396C1
:103820001C926496EEADFFAD64979081992379F177
:103830008860D101D2968C93F20110826496AEAD6D
:10384000BFAD64978C9181508C9321C0552309F4AE
:10385000BDCEF10187819085A185B2850196A11D1C
:10386000B11D87839087A187B2876A968EAD9FAD81
:103870006A970E948B08D10112961C921297D396D8
:103880001C92A4CE0111A2CEF10112829FCEA89665
:10389000EEADFFADA897808190E0D1019D962C916F
:1038A0009D9720FF1FC04FE1489F9001499F300D19
:1038B0001124220D331DF901EE5AFF4F50819C96C1
:1038C0004C9150FF04C031972081241758F42FE108
:1038D000289FF001299FF00D1124E20DF31DEF5AEE
:1038E000FF4F4083F10125A521FF19C04FE1489FFB
:1038F0009001499F300D1124220D331DF901E35B26
:10390000FF4FD10198964C919897408331969996A4
:103910004C919997408331969A964C914083F1014E
:1039200025A522FF1EC04FE1489F9001499F300D01
:103930001124220D331DF901E55BFF4FD10196964D
:103940004C9196974083319795964C9195974083EB
:10395000319794964C919497408337969B964C91CF
:103960004083F10125A523FF0FC02FE1289FD0013F
:10397000299FB00D1124A20DB31DD49628E03F96C7
:1039800001900D922A95E1F7D1019D962C919D977A
:1039900024FF12C02FE1289FF001299FF00D112470
:1039A000E20DF31D57964D915D916D917C915A9763
:1039B00044AF55AF66AF77AFF10125A526FF15C01F
:1039C0002FE1289FF001299FF00D1124E20DF31D36
:1039D000EC5BFF4FD1015F964D915D916D917C91B4
:1039E00092974083518362837383F10125A525FF5C
:1039F00015C02FE1289FF001299FF00D1124E20D41
:103A0000F31DE05CFF4FD1015B964D915D916D918F
:103A10007C915E974083518362837383F10125A576
:103A200027FF0EC02FE1289FF001299FF00D1124E0
:103A3000E20DF31DE85BFF4FD10193962C9120839B
:103A40002FE1289FF001299FF00D1124E05BFF4F2B
:103A5000EE0DFF1D9081D1019D968C919D97892B34
:103A60008083D2968C9184FFB1CDA896EEADFFAD48
:103A7000A89710826496AEADBFAD64978C9181110A
:103A8000A1CDE1E0EC939ECD6496AEADBFAD649761
:103A90008C91882309F430C3CE0101960E948E08D0
:103AA0006496EEADFFAD649780818823E1F081508C
:103AB000808381010C5A1F4FD8018C912FE1289FE0
:103AC000C0011124F101E80FF91FF496DE011196EF
:103AD00001900D922A95E1F7C2968E0D9F1D0E94CE
:103AE0008E08F801108269817A818B819C810E9405
:103AF000442525E93FEB46ED53E30E94A3256B01E6
:103B00007C0120E030E044E452E40E943D2587FF40
:103B100008C08DE490E02C969FAF8EAF2C9760E0AC
:103B200011C020E030E044E452E4C701B6010E9435
:103B3000392987FD0CC08DE490E02C969FAF8EAFA5
:103B40002C9761E0CE01865B9F4F0E94E4138F8D1E
:103B500085FF58C00E945B146F8578890D851E858E
:103B60008823F9F0072E000C880B990B0E9444253E
:103B70002FE632E143E85AE30E94A3256B017C0162
:103B8000B801110F880B990B0E9444259B01AC01D1
:103B9000C701B6010E94482726E53EE04DEE5FE3EF
:103BA0001EC0072E000C880B990B0E9444252FE69F
:103BB00032E143E85AE30E94A3256B017C01B8017E
:103BC000110F880B990B0E9444259B01AC01C70182
:103BD000B6010E9448272AEB3CE443E95FE30E94D8
:103BE000A3250E949D2862967FAF6EAF6297629672
:103BF0002EAD3FAD62972530310524F462961FAE9D
:103C00001EAE62978F8D83FFD0CC62964EAD5FADB6
:103C10006297453051050CF4C8CCF101E05AFF4FD2
:103C2000808181010A5A1F4F882351F0108288E059
:103C3000FE013196D80101900D928A95E1F7B5CC3D
:103C40004D805E806F807884D80114968D909D9011
:103C5000AD90BC901797E0968CAE9DAEAEAEBFAE69
:103C6000E097C501B40122E030E040E050E00E945E
:103C7000222769017A01C301B20122E030E040E06D
:103C800050E00E94222746015701821A930AA40A93
:103C9000B50A68968CAE9DAEAEAEBFAE6897811485
:103CA00027E192062BE5A2062AECB2068CF4E096F8
:103CB000CCACDDACEEACFFACE097C418D508E608A0
:103CC000F7083CE5D31A3CE6E30A39E2F30A1FC0E1
:103CD00068968CAC9DACAEACBFAC6897E096CCACB3
:103CE000DDACEEACFFACE097C418D508E608F708E9
:103CF00021E0821629EE920624EAA20625E3B20606
:103D000034F034EAD31A33E9E30A36EDF30AD80182
:103D10008D909D90AD90BC90A2968CAE9DAEAEAEB7
:103D2000BFAEA29789809A80AB80BC806E968CAE25
:103D30009DAEAEAEBFAE6E97A2966CAD7DAD8EADB4
:103D40009FADA297681979098A099B09A6966CAF5D
:103D50007DAF8EAF9FAFA69797FF0DC02227332769
:103D6000A901261B370B480B590BA6962CAF3DAF6C
:103D70004EAF5FAFA697AC96CCAEDDAEEEAEFFAE6B
:103D8000AC97F7FE0DC08824992454018C189D0827
:103D9000AE08BF08AC968CAE9DAEAEAEBFAEAC97D3
:103DA000AC962CAD3DAD4EAD5FADAC97A6968CAC50
:103DB0009DACAEACBFACA697280D391D4A1D5B1D4E
:103DC000283E3340410551050CF0B0C00E94442507
:103DD00025E33AEF4EE85CE30E94A32525E93FEB9B
:103DE00046ED53E30E94A3256B017C0168968CACE1
:103DF0009DACAEACBFAC6897811427E192062BE571
:103E0000A2062AECB2069CF4E0968CAC9DACAEAC5B
:103E1000BFACE09784189508A608B70824013501BF
:103E20002CE5521A2CE6620A29E2720A2EC0689624
:103E30008CAC9DACAEACBFAC689721E0821629EE8D
:103E4000920624EAA20625E3B2069CF0E0968CAC2A
:103E50009DACAEACBFACE09784189508A608B70837
:103E60002401350124EA521A23E9620A26ED720A76
:103E70000CC0E0968CAC9DACAEACBFACE0978418A7
:103E80009508A608B708240135016E966CAD7DAD86
:103E90008EAD9FAD6E970E94442525E33AEF4EE824
:103EA0005CE30E94A32525E93FEB46ED53E30E9426
:103EB000A3254B015C0120E030E040E05FE3C70157
:103EC000B6010E94A3259B01AC01C501B4010E946B
:103ED00048270E9426284B015C01C301B2010E94C1
:103EE000442525E33AEF4EE85CE30E94A32525E94B
:103EF0003FEB46ED53E30E94A325A50194010E94E8
:103F0000A3259B01AC010E94A3254B015C01A701E5
:103F10009601C701B6010E94A3259B01AC01C50112
:103F2000B4010E9448270E94A429A6C00E944425EB
:103F300025E33AEF4EE85CE30E94A32525E93FEB39
:103F400046ED53E30E94A32520E030E040E05FE32C
:103F50000E94A3250E94962968966CAF7DAF8EAF14
:103F60009FAF6897C701B6010E94442525E33AEF49
:103F70004EE85CE30E94A32525E93FEB46ED53E3C1
:103F80000E94A32520E030E040E05FE30E94A325EB
:103F90000E9496296B017C016E966CAD7DAD8EAD55
:103FA0009FAD6E970E94442525E93FEB46ED53E314
:103FB0000E94A32525E33AEF4EE85CE30E94A32587
:103FC0000E9426284B015C01A2966CAD7DAD8EADA2
:103FD0009FADA2970E94442525E93FEB46ED53E3B0
:103FE0000E94A32525E33AEF4EE85CE30E94A32557
:103FF0000E9426282B013C01A7019601C701B601AA
:104000000E94A3256B017C01A3019201C501B401AB
:104010000E94A3259B01AC01C701B6010E94A32504
:104020006B017C0168962CAD3DAD4EAD5FAD6897E0
:10403000CA01B9010E94A3259B01AC01C701B601C9
:104040000E9448274B015C019B01AC0160E070E0DD
:1040500080E89FE30E9447270E94A4296B017C010E
:10406000C501B4010E94A429A70196010E94C72797
:104070009B01AC010E94482722E138E147EC55E45E
:104080000E94A3256B017C0181010F591F4FD801AC
:104090002D913D914D915C910E944827F8016083DC
:1040A00071838283938320E030E040E85FE30E94E5
:1040B000392918160CF079CA0E9462149B01AC01D0
:1040C000C701B6010E9448276B017C010E94FD13C5
:1040D0002C961FAE1EAE2C97C701B6010E94A428D5
:1040E000CE01865B9F4F0E94E413D8011D921D9262
:1040F0001D921C92139759CAE091C201F091C3011D
:1041000080810E945E0F7C010091C0011091C1016D
:10411000F80180810E94AF11BC01990F880B990BA7
:104120000E94442520E030E040EA50E40E94A325AC
:1041300020E030E040E85AE30E94A3252DEC3CEC5F
:104140004CE45EE30E942B280E949D28072E000C61
:10415000880B990B0E9444254B015C01D8011196F4
:104160006D917C911297072E000C880B990B0E9481
:1041700044252DEC3CEC4CE45FE30E9448279B0176
:10418000AC01C501B4010E943929F80118161CF5CB
:1041900083809480A580B68081149104A104B10429
:1041A00051F40E949715D80113966D937D938D93CA
:1041B0009C93169714C00E949715DC01CB01885E72
:1041C0009340A109B109CC24C39488169906AA0684
:1041D000BB0630F404C01382148215821682C12CEF
:1041E0008091BE019091BF01DC01ED91FC910190A5
:1041F000F081E02D09958091BC019091BD01DC0119
:10420000ED91FC910190F081E02D09958091BA012A
:104210009091BB01DC01ED91FC910190F081E02DCA
:1042200009950091B8011091B901C8010E94BA1412
:10423000882369F0CC2039F0D8011796ED91FC91D4
:10424000189761E012C0C8010E94CD1411C0C801C6
:104250000E94A814882361F0C8010E949F14D8010D
:104260001796ED91FC91189760E080810E94910F64
:10427000E091BC01F091BD010580F681E02D8081C7
:104280000E945E0FD82EE091BE01F091BF01058023
:10429000F681E02D80810E945E0FB82E0091C6014C
:1042A0001091C701F8018281882309F4E4C0EF2846
:1042B000D9F4E1E8F3E085919491D80114969C93A8
:1042C0008E931397E5E7F3E085919491F801968337
:1042D0008583EBE7F3E08591949118969C938E93F8
:1042E0001797E3E2F3E0BDC0CC2009F4A0C0F1E0F1
:1042F000BF1611F0DF124FC00E947B13882309F410
:1043000031C088248394B81018C0EBE5F3E0D810CE
:104310000AC085919491D80114969C938E9313971B
:1043200083E293E017C085919491D80114969C93F1
:104330008E93139783E293E01FC0F1E0DF1296C0E3
:1043400083E293E0FC0125913491D80114963C93CB
:104350002E931397FC0125913491F8013683258320
:10436000FC0177C083E293E0FC0125913491D801F0
:1043700014963C932E931397FC0125913491F801E8
:1043800036832583FC012591349118963C932E9316
:104390001797FC0166C06296FFAD6297FF93619626
:1043A0008FAC61978F928DEA91E09F938F93AA24AF
:1043B000A394B12CAC0EBD1EBF92AF920E941F2DD4
:1043C000E981F0E0EE0FFF1FED51FD4F85919491D3
:1043D000D80114969C938E931397EA81F0E0EE0F28
:1043E000FF1FED51FD4F85919491F80196838583D0
:1043F000EB81F0E0EE0FFF1FED51FD4F85919491A1
:1044000018969C938E9317970E945B140F900F90B1
:104410000F900F900F900F90882311F0EBE401C0E4
:10442000EDE4F0E0EE0FFF1FED51FD4F1AC0EBE59C
:10443000F3E085919491D80114969C938E931397F1
:10444000E9EDF3E085919491F80196838583EDED94
:10445000F3E08591949118969C938E931797EFE5CE
:10446000F3E085919491F80192878187C8010396C2
:104470000E943F0765C0EF2831F444E06AE371E031
:10448000848995895BC0CC2009F452C0B1E0BB1689
:1044900011F0DB122AC00E947B138823C1F0E1E0F7
:1044A000BE120EC0D80154968D919C91559744E050
:1044B000DE1203C062E371E041C06EE271E03EC013
:1044C000B1E0DB123DC044E06AE271E034C0D801E3
:1044D00054968D919C91559719821A821B821C8249
:1044E00044E0BE016F5F7F4F29C019821A821B8290
:1044F0001C820E945B14882311F081E001C088E0D7
:104500008C8344E0BE016F5F7F4FF80184899589F9
:104510000E94290921E062964EAD5FAD62976AE084
:10452000D80154968D919C9155970E946A0908C0B4
:1045300044E066E371E0F801848995890E942909C5
:104540000E94F70D0C94CE190F5FD10112960C93B7
:10455000D394F101D0AA0C94E61AF101128213AAA5
:104560000C94E61AE9E8F2E01382128288EE93E0F6
:10457000A0E0B0E084839583A683B78322E531E091
:1045800031832083E5E9F2E01382128284839583EC
:10459000A683B78382E891E09183808385EC90E0E5
:1045A0009587848784EC90E09787868780EC90E0FD
:1045B000918B808B81EC90E0938B828B82EC90E0EE
:1045C000958B848B86EC90E0978B868B118E128E68
:1045D000138E148E0895EF920F931F93CF93DF9352
:1045E000E80147FD02C034E001C034E1042E000CB4
:1045F000550B57FF03C0519541955109E32E022FEA
:10460000242FAE010E940B23CE01DF91CF911F9189
:104610000F91EF900895A9E0B0E0E1E1F3E20C948E
:10462000BA266A01122FB02E2BE3201720F0FF24A8
:10463000F394F00E02C02CE3F22E0F2D27E0AE0112
:104640004F5F5F4F0E946524BC014981842F8970B0
:10465000813031F0E1FC06C0E0FE06C090E205C00A
:104660009DE203C09BE201C090E05E2D507143FFCC
:104670003CC0911102C083E001C084E0811718F4AE
:10468000212F281B01C020E051110BC0F601822F01
:1046900030E2882319F031938150FBCFC20ED11C38
:1046A00020E0992329F0D6019C93F60131966F0101
:1046B000C6010396E2FE0AC03EE4D6013C9341E403
:1046C00011964C93119712963C9306C03EE6F60164
:1046D000308341E641833283FC01322F40E23323B1
:1046E00009F442C041933150FACF42FF44C09111C6
:1046F00002C083E001C084E0811718F4212F281B39
:1047000001C020E051110BC0F601822F30E2882356
:1047100019F031938150FBCFC20ED11C20E09923B8
:1047200029F0D6019C93F60131966F01C6010396DC
:10473000E2FE0BC039E4D6013C933EE411963C9373
:10474000119736E412963C9307C039E6F6013083A0
:104750003EE6318336E63283FC01322F40E23323DA
:1047600019F041933150FBCFFC01E20FF11D108293
:104770008EEF9FEFA6C021E030E0911102C020E053
:1047800030E0161617061CF4FB01319602C0E1E07A
:10479000F0E02E0F3F1FBB2021F0EB2DF0E0319613
:1047A00002C0E0E0F0E02E0F3F1FE12FF0E02E17F7
:1047B0003F071CF4121B212F01C020E08E2D8871B1
:1047C00059F4F601822F30E2882319F03193815099
:1047D000FBCFC20ED11C20E0992329F0D6019C9377
:1047E000F60131966F0151110BC0F601822F90E353
:1047F000882319F091938150FBCFC20ED11C20E089
:104800000F2D060F9A81342F307144FF03C091336E
:1048100009F40150101624F4093018F008E001C022
:1048200001E0AB0177FF02C040E050E0FB01E41B78
:10483000F50BA1E0B0E0AC0FBD1FEA0FFB1F8EE24D
:10484000A82E4B01801A91080B2D10E011950195AF
:1048500011094F3FBFEF5B0721F4D601AC921196CF
:104860006D01641775072CF08416950614F4818188
:1048700001C080E3415051093196D60111967D0166
:104880004017510724F0D6018C936701E2CF6417DB
:10489000750739F4963320F4953319F4311101C0BA
:1048A00081E3F6018083F701822F90E2882319F0DB
:1048B00091938150FBCFF701E20FF11D108280E050
:1048C00090E02996ECE00C94D626283008F027E0FA
:1048D0003327DA01990F311D87FD9160009661053C
:1048E000710539F432602E5F3D9330E32A95E1F78C
:1048F00008959F3F30F080387105610509F03C5FF5
:104900003C5F3D93913008F08068911DDF93CF9319
:104910001F930F93FF92EF92192F987F9695E92F8F
:1049200096959695E90FFF27E852FE4F9927332772
:10493000EE24FF24A701E70105900894079428F4CA
:10494000360FE71EF81E491F511D660F771F881F7F
:10495000991F0694A1F70590079428F4E70EF81E16
:10496000491F561FC11D770F881F991F661F069488
:10497000A1F70590079428F4F80E491F561FC71F8A
:10498000D11D880F991F661F771F0694A1F7059008
:10499000079420F4490F561FC71FD81F990F661F91
:1049A000771F881F0694A9F784911095177041F01E
:1049B000D695C79557954795F794E7941A95C1F7FB
:1049C000EEE7F1E068941590159135916591959118
:1049D00005907FE27395E118F10A430B560BC90B62
:1049E000D009C0F7E10CF11E431F561FC91FD01D8F
:1049F0007EF4703311F48A95E6CFE894015030F0DC
:104A0000080F0AF40027021708F4202F2395022F1D
:104A10007A3328F079E37D932A95E9F710C07D93E6
:104A20002A9589F606949795679537951795179463
:104A3000E118F10A430B560BC90BD00998F02395E6
:104A40007E9173957A3308F070E37C932013B8F766
:104A50007E9170617D9330F0839571E37D9370E377
:104A60002A95E1F71124EF90FF900F911F91CF91BC
:104A7000DF91992787FD909508950E947F2508F47E
:104A800081E00895E89409C097FB3EF490958095E5
:104A9000709561957F4F8F4F9F4F9923A9F0F92F04
:104AA00096E9BB279395F695879577956795B79582
:104AB000F111F8CFFAF4BB0F11F460FF1BC06F5F68
:104AC0007F4F8F4F9F4F16C0882311F096E911C07A
:104AD000772321F09EE8872F762F05C0662371F09B
:104AE00096E8862F70E060E02AF09A95660F771FAF
:104AF000881FDAF7880F9695879597F90895990F8B
:104B00000008550FAA0BE0E8FEEF16161706E80797
:104B1000F907C0F012161306E407F50798F0621BB8
:104B2000730B840B950B39F40A2661F0232B242B8D
:104B3000252B21F408950A2609F4A140A6958FEFAC
:104B4000811D811D08950E94B6250C9427260E9480
:104B5000192638F00E94202620F0952311F00C949D
:104B600010260C94162611240C945B260E943826DD
:104B700070F3959FC1F3950F50E0551F629FF001B0
:104B8000729FBB27F00DB11D639FAA27F00DB11DC9
:104B9000AA1F649F6627B00DA11D661F829F222752
:104BA000B00DA11D621F739FB00DA11D621F839FD9
:104BB000A00D611D221F749F3327A00D611D231FAF
:104BC000849F600D211D822F762F6A2F11249F57FD
:104BD00050409AF0F1F088234AF0EE0FFF1FBB1F00
:104BE000661F771F881F91505040A9F79E3F5105BF
:104BF00080F00C9410260C945B265F3FE4F3983E03
:104C0000D4F3869577956795B795F795E7959F5F68
:104C1000C1F7FE2B880F911D9695879597F90895FA
:104C200097F99F6780E870E060E008959FEF80EC5F
:104C3000089500240A941616170618060906089502
:104C400000240A9412161306140605060895092E68
:104C50000394000C11F4882352F0BB0F40F4BF2BD7
:104C600011F460FF04C06F5F7F4F8F4F9F4F089517
:104C700057FD9058440F551F59F05F3F71F047950D
:104C8000880F97FB991F61F09F3F79F087950895F2
:104C9000121613061406551FF2CF4695F1DF08C011
:104CA000161617061806991FF1CF8695710561052E
:104CB00008940895E894BB2766277727CB0197F9D6
:104CC0000895F999FECF92BD81BDF89A992780B5D4
:104CD0000895262FF999FECF1FBA92BD81BD20BD40
:104CE0000FB6F894FA9AF99A0FBE01960895DB016F
:104CF0008F939F930E94A926BF91AF91A29F800D91
:104D0000911DA39F900DB29F900D11240895A1E2D3
:104D10001A2EAA1BBB1BFD010DC0AA1FBB1FEE1F35
:104D2000FF1FA217B307E407F50720F0A21BB30B80
:104D3000E40BF50B661F771F881F991F1A9469F7FC
:104D400060957095809590959B01AC01BD01CF0158
:104D500008950E94EB26A59F900DB49F900DA49FEF
:104D6000800D911D112408952F923F924F925F92D2
:104D70006F927F928F929F92AF92BF92CF92DF926B
:104D8000EF92FF920F931F93CF93DF93CDB7DEB7D0
:104D9000CA1BDB0B0FB6F894DEBF0FBECDBF099464
:104DA0002A88398848885F846E847D848C849B84BB
:104DB000AA84B984C884DF80EE80FD800C811B81C9
:104DC000AA81B981CE0FD11D0FB6F894DEBF0FBEF8
:104DD000CDBFED010895A29FB001B39FC001A39F75
:104DE000700D811D1124911DB29F700D811D112424
:104DF000911D0895AA1BBB1B51E107C0AA1FBB1F31
:104E0000A617B70710F0A61BB70B881F991F5A9556
:104E1000A9F780959095BC01CD01089597FB072EC9
:104E200016F4009407D077FD09D00E94FA2607FCFB
:104E300005D03EF4909581959F4F089570956195AA
:104E40007F4F0895052E97FB1EF400940E9439278A
:104E500057FD07D00E94872607FC03D04EF40C9420
:104E6000392750954095309521953F4F4F4F5F4FD3
:104E7000089590958095709561957F4F8F4F9F4FC6
:104E80000895EE0FFF1F0590F491E02D09945058FE
:104E9000BB27AA270E945F270C9427260E94192669
:104EA00038F00E94202620F039F49F3F19F426F4B0
:104EB0000C9416260EF4E095E7FB0C941026E92FCF
:104EC0000E94382658F3BA176207730784079507BC
:104ED00020F079F4A6F50C945A260EF4E0950B2EEA
:104EE000BA2FA02D0B01B90190010C01CA01A0013C
:104EF0001124FF27591B99F0593F50F4503E68F197
:104F00001A16F040A22F232F342F4427585FF3CFD7
:104F1000469537952795A795F0405395C9F77EF4A8
:104F20001F16BA0B620B730B840BBAF09150A1F0F1
:104F3000FF0FBB1F661F771F881FC2F70EC0BA0F77
:104F4000621F731F841F48F4879577956795B795FF
:104F5000F7959E3F08F0B0CF9395880F08F09927FA
:104F6000EE0F9795879508950E94192660F080E8C6
:104F700091E009F49EEF0E94202628F040E851E0DD
:104F800071F45EEF0CC00C9416260C945A26E92F8F
:104F9000E0780E94382640F3092E052AB1F326173F
:104FA00037074807590738F00E2E07F8E02569F053
:104FB000E025E0640AC0EF6307F8009407FADB011C
:104FC000B9019D01DC01CA01AD01EF930E944228A5
:104FD0000E9427260E94F7275F91552339F02BED79
:104FE0003FE049E450FD49EC0C9448270895DF93D5
:104FF000DD27B92FBF7740E85FE31616170648078D
:105000005B0718F4D92F0E943E299F938F937F93BB
:105010006F930E94E429E0EBF0E00E94D3280E9405
:1050200027262F913F914F915F910E94B625DD2356
:1050300051F09058A2EA2AED3FE049EC5FE3D078C6
:105040005D270E945F27DF910C9427260E94FC2891
:10505000E3950C9425290E943F280C9427260E9452
:10506000202658F00E94192640F029F45F3F29F0CD
:105070000C94102651110C945B260C9416260E9459
:10508000382668F39923B1F3552391F3951B550BFB
:10509000BB27AA2762177307840738F09F5F5F4F0B
:1050A000220F331F441FAA1FA9F335D00E2E3AF04A
:1050B000E0E832D091505040E695001CCAF72BD062
:1050C000FE2F29D0660F771F881FBB1F26173707B3
:1050D0004807AB07B0E809F0BB0B802DBF01FF27E5
:1050E00093585F4F3AF09E3F510578F00C9410268C
:1050F0000C945B265F3FE4F3983ED4F38695779556
:105100006795B795F7959F5FC9F7880F911D96959D
:10511000879597F90895E1E0660F771F881FBB1FF9
:10512000621773078407BA0720F0621B730B840BA6
:10513000BA0BEE1F88F7E09508950E94A4286894A2
:10514000B1110C945B2608950E94402688F09F5769
:1051500098F0B92F9927B751B0F0E1F0660F771F9B
:10516000881F991F1AF0BA95C9F714C0B13091F091
:105170000E945A26B1E008950C945A26672F782F82
:105180008827B85F39F0B93FCCF386957795679556
:10519000B395D9F73EF490958095709561957F4FC2
:1051A0008F4F9F4F0895DF93CF931F930F93FF92DD
:1051B000EF92DF927B018C01689406C0DA2EEF013A
:1051C0000E94B625FE01E894A5912591359145915F
:1051D0005591A6F3EF010E945F27FE019701A801F8
:1051E000DA9469F7DF90EF90FF900F911F91CF91C4
:1051F000DF9108950C9416260E944026D8F3E89477
:10520000E0E0BB279F57F0F02AED3FE049EC06C0F5
:10521000EE0FBB0F661F771F881F28F0B23A620798
:105220007307840728F0B25A620B730B840BE39563
:105230009A9572F7803830F49A95BB0F661F771FE6
:10524000881FD2F790480C94242AEF93E0FF07C000
:10525000A2EA2AED3FE049EC5FEB0E945F270E9443
:1052600027260F90039401FC9058EDEDF0E00C948C
:10527000372A0E947F2508F48FEF08959B01AC0127
:1052800060E070E080E89FE30C942B28FA01EE0FB9
:10529000FF1F309621053105A1F16115710561F4FB
:1052A0008038BFE39B0749F168949038810561F02D
:1052B0008038BFEF9B0741F099234AF5FF3FE10596
:1052C0003105210519F1E8940894E795D901AA233D
:1052D00029F4AB2FBE2FF85FD0F310C0FF5F70F43E
:1052E000A695E0F7F73950F019F0FF3A38F49F77B8
:1052F0009F930DD00F9007FC9058089546F00C94A2
:10530000162660E070E080E89FE308954FE79F77FE
:105310005F934F933F932F930E948D2A2F913F913C
:105320004F915F910E94A3250C94F0299F930E94B6
:10533000FC280F9007FCEE5F0C94252919F416F455
:105340000C9416260C94222A0E944026B8F3992326
:10535000C9F3B6F39F57550B87FF0E94302A0024EC
:10536000A0E640EA900180585695979528F4805C15
:10537000660F771F881F20F026173707480730F47D
:10538000621B730B840B202931294A2BA695179495
:105390000794202531254A2758F7660F771F881F65
:1053A00020F026173707480730F4620B730B840B85
:1053B000200D311D411DA09581F7B901842F915811
:1053C000880F9695879508959B01AC010C94A325B1
:1053D00029F416F00C9410260C945A260C941626D8
:1053E0000E944026A8F39638A0F707F80F92E89499
:1053F0002BE33AEA48EB5FE70E94B9250F920F9240
:105400000F924DB75EB70F920E94D52AEBEFF0E0F6
:105410000E94D3284F915F91EF91FF91E595EE1F88
:10542000FF1F49F0FE57E0684427EE0F441FFA952E
:10543000E1F74195550B0E944F2A0F9007FE0C94FF
:105440003E2908959F3F31F0915020F4879577953C
:105450006795B795880F911D9695879597F908954B
:1054600091505040660F771F881FD2F708959F9381
:105470008F937F936F93FF93EF939B01AC010E94F7
:10548000A325EF91FF910E94D3282F913F914F9137
:105490005F910C94A3250C9410260C94222A0E9450
:1054A0004026D8F39923C9F3940F511DA3F39150CB
:1054B000504094F059F0882332F0660F771F881F10
:1054C00091505040C1F79E3F51052CF7880F911D18
:1054D0009695879597F908955F3FACF0983E9CF0BC
:1054E000BB27869577956795B79508F4B160939536
:1054F000C1F7BB0F58F711F460FFE8CF6F5F7F4F24
:105500008F4F9F4FE3CF0C945B2616F00C94222A0A
:105510000C94162668940C9410260E944026A8F33A
:105520009923C1F3AEF3DF93CF931F930F93FF92B1
:10553000C92FDD2788232AF02197660F771F881F40
:10554000DAF720E030E040E85FEB9FE3883920F0B5
:10555000803E38F021968F770E944827E3E2F1E001
:1055600004C00E944827E0E5F1E00E94D3288B01A7
:10557000BE01EC01FB2E6F5771097595771F880BE3
:10558000990B0E94442528E132E741E35FE30E9442
:10559000B625AF2D9801AE01FF900F911F91CF91CD
:1055A000DF910E945F270C942726FA01DC01AA0FE5
:1055B000BB1F9B01AC01BF5728F422273327442788
:1055C000507820C0B75190F4AB2F00244695379502
:1055D0002795011CA395D2F3002071F0220F331FF1
:1055E000441FB395DAF30ED00C9447276130710550
:1055F000A0E88A07B94630F49B01AC0166277727FB
:1056000088279078309621F020833183428353831A
:1056100008950F931F93CF93DF938230910510F479
:1056200082E090E0E0918103F091820320E030E09D
:10563000A0E0B0E0309719F14081518102811381DF
:1056400048175907C8F08417950769F4109731F087
:1056500012960C93129713961C9327C00093810304
:105660001093820322C02115310519F04217530708
:1056700018F49A01BD01EF01DF01F801DBCF21151C
:105680003105F9F0281B390B2430310580F48A816B
:105690009B816115710521F0FB019383828304C016
:1056A0009093820380938103FE01329644C0FE01F1
:1056B000E20FF31F8193919322503109398328839C
:1056C0003AC020917F0330918003232B41F4209135
:1056D0000201309103013093800320937F032091D6
:1056E0000001309101012115310541F42DB73EB77C
:1056F0004091040150910501241B350BE0917F037B
:10570000F0918003E217F307A0F42E1B3F0B28173C
:10571000390778F0AC014E5F5F4F2417350748F02A
:105720004E0F5F1F5093800340937F0381939193AB
:1057300002C0E0E0F0E0CF01DF91CF911F910F9127
:105740000895CF93DF93009709F481C0FC0132974D
:1057500013821282A0918103B0918203109781F489
:1057600020813181820F931F20917F03309180032C
:105770002817390751F5F0938003E0937F0367C042
:10578000ED0120E030E0CE17DF0740F44A815B8175
:105790009E0141155105F1F0EA01F5CFD383C28393
:1057A00040815181840F951FC817D90759F488810A
:1057B0009981840F951F0296918380838A819B81B2
:1057C000938382832115310529F4F0938203E093BA
:1057D00081033DC0E901FB83EA8349915991C40FDC
:1057E000D51FEC17FD0761F480819181840F951F0F
:1057F0000296E90199838883828193819B838A83BE
:10580000E0E0F0E012968D919C911397009719F0CB
:10581000FD01DC01F7CF8D919C9111979D012E5FC9
:105820003F4F820F931F20917F03309180032817F1
:10583000390769F4309729F410928203109281039A
:1058400002C013821282B0938003A0937F03DF9182
:10585000CF910895A0E0B0E0E0E3FCE20C94B8261C
:10586000EC01009721F4CB010E94092BB4C0FC018C
:10587000E60FF71F9C0122503109E217F30708F4E5
:10588000A8C0D9010D911C91119706171707B0F008
:105890000530110508F49BC0C801049786179707C7
:1058A00008F495C002501109061B170B01931193C0
:1058B0006D937C93CF010E94A12B89C05B01A01A3C
:1058C000B10A4C01800E911EA0918103B091820318
:1058D000612C712CE12CF12C109709F446C08D91AC
:1058E0009C911197A815B905B1F56C0142E0C40E61
:1058F000D11CCA14DB0478F14C018A189B0864019E
:1059000042E0C40ED11C1296BC9012971396AC9133
:10591000B5E0CB16D10440F0B282A383918280829D
:10592000D9016D937C9309C00E5F1F4F800F911FAB
:10593000F90191838083EB2DFA2FE114F10431F00A
:10594000D7011396FC93EE93129741C0F093820314
:10595000E09381033CC06816790608F43C017D01A0
:1059600012960D90BC91A02DB7CF80917F0390919E
:10597000800388169906E1F466167706C8F48091CC
:10598000000190910101009741F48DB79EB74091BD
:10599000040150910501841B950BE817F907C8F421
:1059A000F0938003E0937F03F901718360830FC05C
:1059B000CB010E94092B7C01009759F0A801BE0180
:1059C0000E94F52CCE010E94A12BC70104C0CE017C
:1059D00002C080E090E0CDB7DEB7EEE00C94D426B4
:1059E00081E090E0F8940C94D22FFB01DC0102C01E
:1059F00001900D9241505040D8F70895FC018191DB
:105A0000861721F08823D9F7992708953197CF0178
:105A10000895FB01DC0101900D920020E1F708954B
:105A2000FB01DC014150504048F001900D920020F4
:105A3000C9F701C01D9241505040E0F70895AEE013
:105A4000B0E0E5E2FDE20C94C2260D891E8986E0F5
:105A50008C831A8309838FEF9FE79E838D83AE012A
:105A6000475E5F4F6F89788DCE0101960E94412D70
:105A7000EF81F885E00FF11F10822E96E4E00C9480
:105A8000DE26ABE0B0E0E7E4FDE20C94B4266C0166
:105A90007B018A01FC0117821682838181FFCCC1C0
:105AA000CE0101963C01F6019381F70193FD8591AA
:105AB00093FF81917F01882309F4BAC1853239F4BB
:105AC00093FD859193FF81917F01853229F4B60181
:105AD00090E00E94382FE7CF912C212C312CFFE150
